{
	"data": {
		"bytecode": {
			"linkReferences": {},
			"object": "608060405234801561001057600080fd5b50611070806100206000396000f3fe608060405234801561001057600080fd5b50600436106100885760003560e01c806361d027b31161005b57806361d027b3146100ff578063661139021461011d578063ab8c71c014610139578063b3066d491461015757610088565b80630ee426861461008d5780632de25f4c146100ab5780633ba1e42c146100c7578063418016b7146100e3575b600080fd5b610095610173565b6040516100a29190610c9f565b60405180910390f35b6100c560048036038101906100c09190610a5e565b610199565b005b6100e160048036038101906100dc91906108ad565b610235565b005b6100fd60048036038101906100f891906107bf565b61027a565b005b61010761031f565b6040516101149190610cba565b60405180910390f35b610137600480360381019061013291906109c4565b610343565b005b610141610591565b60405161014e9190610c84565b60405180910390f35b610171600480360381019061016c919061076c565b6105b7565b005b600260009054906101000a900473ffffffffffffffffffffffffffffffffffffffff1681565b600260009054906101000a900473ffffffffffffffffffffffffffffffffffffffff1673ffffffffffffffffffffffffffffffffffffffff166383e56bf786868686866040518663ffffffff1660e01b81526004016101fc959493929190610d15565b600060405180830381600087803b15801561021657600080fd5b505af115801561022a573d6000803e3d6000fd5b505050505050505050565b600087511180156102465750600086115b1561026e57600061025d8b8b8b8b8b8b8b8861027a565b61026c60035489868686610199565b505b50505050505050505050565b600260009054906101000a900473ffffffffffffffffffffffffffffffffffffffff1673ffffffffffffffffffffffffffffffffffffffff1663ec3942de89898989898989896040518963ffffffff1660e01b81526004016102e3989796959493929190610bf8565b600060405180830381600087803b1580156102fd57600080fd5b505af1158015610311573d6000803e3d6000fd5b505050505050505050505050565b60008054906101000a900473ffffffffffffffffffffffffffffffffffffffff1681565b600260009054906101000a900473ffffffffffffffffffffffffffffffffffffffff1673ffffffffffffffffffffffffffffffffffffffff166357e6c2f46040518163ffffffff1660e01b815260040160206040518083038186803b1580156103ab57600080fd5b505afa1580156103bf573d6000803e3d6000fd5b505050506040513d601f19601f820116820180604052508101906103e39190610a04565b610422576040517f08c379a000000000000000000000000000000000000000000000000000000000815260040161041990610cf5565b60405180910390fd5b8060008054906101000a900473ffffffffffffffffffffffffffffffffffffffff1673ffffffffffffffffffffffffffffffffffffffff1663f8b2cb4f846040518263ffffffff1660e01b815260040161047c9190610bdd565b60206040518083038186803b15801561049457600080fd5b505afa1580156104a8573d6000803e3d6000fd5b505050506040513d601f19601f820116820180604052508101906104cc9190610a31565b101561050d576040517f08c379a000000000000000000000000000000000000000000000000000000000815260040161050490610cd5565b60405180910390fd5b60008054906101000a900473ffffffffffffffffffffffffffffffffffffffff1673ffffffffffffffffffffffffffffffffffffffff1663f7654a016040518163ffffffff1660e01b8152600401600060405180830381600087803b15801561057557600080fd5b505af1158015610589573d6000803e3d6000fd5b505050505050565b600160009054906101000a900473ffffffffffffffffffffffffffffffffffffffff1681565b826000806101000a81548173ffffffffffffffffffffffffffffffffffffffff021916908373ffffffffffffffffffffffffffffffffffffffff16021790555081600160006101000a81548173ffffffffffffffffffffffffffffffffffffffff021916908373ffffffffffffffffffffffffffffffffffffffff16021790555080600260006101000a81548173ffffffffffffffffffffffffffffffffffffffff021916908373ffffffffffffffffffffffffffffffffffffffff160217905550505050565b600061069161068c84610d94565b610d6f565b9050828152602081018484840111156106ad576106ac610f46565b5b6106b8848285610e9f565b509392505050565b6000813590506106cf81610fde565b92915050565b6000813590506106e481610ff5565b92915050565b6000815190506106f981610ff5565b92915050565b60008135905061070e8161100c565b92915050565b600082601f83011261072957610728610f41565b5b813561073984826020860161067e565b91505092915050565b60008135905061075181611023565b92915050565b60008151905061076681611023565b92915050565b60008060006060848603121561078557610784610f50565b5b6000610793868287016106c0565b93505060206107a4868287016106c0565b92505060406107b5868287016106c0565b9150509250925092565b600080600080600080600080610100898b0312156107e0576107df610f50565b5b60006107ee8b828c016106c0565b98505060206107ff8b828c016106d5565b975050604089013567ffffffffffffffff8111156108205761081f610f4b565b5b61082c8b828c01610714565b965050606089013567ffffffffffffffff81111561084d5761084c610f4b565b5b6108598b828c01610714565b955050608061086a8b828c01610742565b94505060a061087b8b828c01610742565b93505060c061088c8b828c016106ff565b92505060e061089d8b828c016106d5565b9150509295985092959890939650565b6000806000806000806000806000806101408b8d0312156108d1576108d0610f50565b5b60006108df8d828e016106c0565b9a505060206108f08d828e016106d5565b99505060408b013567ffffffffffffffff81111561091157610910610f4b565b5b61091d8d828e01610714565b98505060608b013567ffffffffffffffff81111561093e5761093d610f4b565b5b61094a8d828e01610714565b975050608061095b8d828e01610742565b96505060a061096c8d828e01610742565b95505060c061097d8d828e016106ff565b94505060e061098e8d828e01610742565b9350506101006109a08d828e01610742565b9250506101206109b28d828e01610742565b9150509295989b9194979a5092959850565b600080604083850312156109db576109da610f50565b5b60006109e9858286016106c0565b92505060206109fa85828601610742565b9150509250929050565b600060208284031215610a1a57610a19610f50565b5b6000610a28848285016106ea565b91505092915050565b600060208284031215610a4757610a46610f50565b5b6000610a5584828501610757565b91505092915050565b600080600080600060a08688031215610a7a57610a79610f50565b5b6000610a8888828901610742565b955050602086013567ffffffffffffffff811115610aa957610aa8610f4b565b5b610ab588828901610714565b9450506040610ac688828901610742565b9350506060610ad788828901610742565b9250506080610ae888828901610742565b9150509295509295909350565b610afe81610de1565b82525050565b610b0d81610df3565b82525050565b610b1c81610dff565b82525050565b610b2b81610e33565b82525050565b610b3a81610e57565b82525050565b610b4981610e7b565b82525050565b6000610b5a82610dc5565b610b648185610dd0565b9350610b74818560208601610eae565b610b7d81610f55565b840191505092915050565b6000610b95602083610dd0565b9150610ba082610f66565b602082019050919050565b6000610bb8602d83610dd0565b9150610bc382610f8f565b604082019050919050565b610bd781610e29565b82525050565b6000602082019050610bf26000830184610af5565b92915050565b600061010082019050610c0e600083018b610af5565b610c1b602083018a610b04565b8181036040830152610c2d8189610b4f565b90508181036060830152610c418188610b4f565b9050610c506080830187610bce565b610c5d60a0830186610bce565b610c6a60c0830185610b13565b610c7760e0830184610b04565b9998505050505050505050565b6000602082019050610c996000830184610b22565b92915050565b6000602082019050610cb46000830184610b31565b92915050565b6000602082019050610ccf6000830184610b40565b92915050565b60006020820190508181036000830152610cee81610b88565b9050919050565b60006020820190508181036000830152610d0e81610bab565b9050919050565b600060a082019050610d2a6000830188610bce565b8181036020830152610d3c8187610b4f565b9050610d4b6040830186610bce565b610d586060830185610bce565b610d656080830184610bce565b9695505050505050565b6000610d79610d8a565b9050610d858282610ee1565b919050565b6000604051905090565b600067ffffffffffffffff821115610daf57610dae610f12565b5b610db882610f55565b9050602081019050919050565b600081519050919050565b600082825260208201905092915050565b6000610dec82610e09565b9050919050565b60008115159050919050565b6000819050919050565b600073ffffffffffffffffffffffffffffffffffffffff82169050919050565b6000819050919050565b6000610e3e82610e45565b9050919050565b6000610e5082610e09565b9050919050565b6000610e6282610e69565b9050919050565b6000610e7482610e09565b9050919050565b6000610e8682610e8d565b9050919050565b6000610e9882610e09565b9050919050565b82818337600083830152505050565b60005b83811015610ecc578082015181840152602081019050610eb1565b83811115610edb576000848401525b50505050565b610eea82610f55565b810181811067ffffffffffffffff82111715610f0957610f08610f12565b5b80604052505050565b7f4e487b7100000000000000000000000000000000000000000000000000000000600052604160045260246000fd5b600080fd5b600080fd5b600080fd5b600080fd5b6000601f19601f8301169050919050565b7f496e73756666696369656e742062616c616e636520696e205472656173757279600082015250565b7f506c61796572206973206e6f7420617574686f72697a656420746f206d616b6560008201527f2061207769746864726177616c00000000000000000000000000000000000000602082015250565b610fe781610de1565b8114610ff257600080fd5b50565b610ffe81610df3565b811461100957600080fd5b50565b61101581610dff565b811461102057600080fd5b50565b61102c81610e29565b811461103757600080fd5b5056fea2646970667358221220d63a4ba0a544a56a12527f33a616a9f999396b8572a62c61fdf498e9de9fffbe64736f6c63430008060033",
			"opcodes": "PUSH1 0x80 PUSH1 0x40 MSTORE CALLVALUE DUP1 ISZERO PUSH2 0x10 JUMPI PUSH1 0x0 DUP1 REVERT JUMPDEST POP PUSH2 0x1070 DUP1 PUSH2 0x20 PUSH1 0x0 CODECOPY PUSH1 0x0 RETURN INVALID PUSH1 0x80 PUSH1 0x40 MSTORE CALLVALUE DUP1 ISZERO PUSH2 0x10 JUMPI PUSH1 0x0 DUP1 REVERT JUMPDEST POP PUSH1 0x4 CALLDATASIZE LT PUSH2 0x88 JUMPI PUSH1 0x0 CALLDATALOAD PUSH1 0xE0 SHR DUP1 PUSH4 0x61D027B3 GT PUSH2 0x5B JUMPI DUP1 PUSH4 0x61D027B3 EQ PUSH2 0xFF JUMPI DUP1 PUSH4 0x66113902 EQ PUSH2 0x11D JUMPI DUP1 PUSH4 0xAB8C71C0 EQ PUSH2 0x139 JUMPI DUP1 PUSH4 0xB3066D49 EQ PUSH2 0x157 JUMPI PUSH2 0x88 JUMP JUMPDEST DUP1 PUSH4 0xEE42686 EQ PUSH2 0x8D JUMPI DUP1 PUSH4 0x2DE25F4C EQ PUSH2 0xAB JUMPI DUP1 PUSH4 0x3BA1E42C EQ PUSH2 0xC7 JUMPI DUP1 PUSH4 0x418016B7 EQ PUSH2 0xE3 JUMPI JUMPDEST PUSH1 0x0 DUP1 REVERT JUMPDEST PUSH2 0x95 PUSH2 0x173 JUMP JUMPDEST PUSH1 0x40 MLOAD PUSH2 0xA2 SWAP2 SWAP1 PUSH2 0xC9F JUMP JUMPDEST PUSH1 0x40 MLOAD DUP1 SWAP2 SUB SWAP1 RETURN JUMPDEST PUSH2 0xC5 PUSH1 0x4 DUP1 CALLDATASIZE SUB DUP2 ADD SWAP1 PUSH2 0xC0 SWAP2 SWAP1 PUSH2 0xA5E JUMP JUMPDEST PUSH2 0x199 JUMP JUMPDEST STOP JUMPDEST PUSH2 0xE1 PUSH1 0x4 DUP1 CALLDATASIZE SUB DUP2 ADD SWAP1 PUSH2 0xDC SWAP2 SWAP1 PUSH2 0x8AD JUMP JUMPDEST PUSH2 0x235 JUMP JUMPDEST STOP JUMPDEST PUSH2 0xFD PUSH1 0x4 DUP1 CALLDATASIZE SUB DUP2 ADD SWAP1 PUSH2 0xF8 SWAP2 SWAP1 PUSH2 0x7BF JUMP JUMPDEST PUSH2 0x27A JUMP JUMPDEST STOP JUMPDEST PUSH2 0x107 PUSH2 0x31F JUMP JUMPDEST PUSH1 0x40 MLOAD PUSH2 0x114 SWAP2 SWAP1 PUSH2 0xCBA JUMP JUMPDEST PUSH1 0x40 MLOAD DUP1 SWAP2 SUB SWAP1 RETURN JUMPDEST PUSH2 0x137 PUSH1 0x4 DUP1 CALLDATASIZE SUB DUP2 ADD SWAP1 PUSH2 0x132 SWAP2 SWAP1 PUSH2 0x9C4 JUMP JUMPDEST PUSH2 0x343 JUMP JUMPDEST STOP JUMPDEST PUSH2 0x141 PUSH2 0x591 JUMP JUMPDEST PUSH1 0x40 MLOAD PUSH2 0x14E SWAP2 SWAP1 PUSH2 0xC84 JUMP JUMPDEST PUSH1 0x40 MLOAD DUP1 SWAP2 SUB SWAP1 RETURN JUMPDEST PUSH2 0x171 PUSH1 0x4 DUP1 CALLDATASIZE SUB DUP2 ADD SWAP1 PUSH2 0x16C SWAP2 SWAP1 PUSH2 0x76C JUMP JUMPDEST PUSH2 0x5B7 JUMP JUMPDEST STOP JUMPDEST PUSH1 0x2 PUSH1 0x0 SWAP1 SLOAD SWAP1 PUSH2 0x100 EXP SWAP1 DIV PUSH20 0xFFFFFFFFFFFFFFFFFFFFFFFFFFFFFFFFFFFFFFFF AND DUP2 JUMP JUMPDEST PUSH1 0x2 PUSH1 0x0 SWAP1 SLOAD SWAP1 PUSH2 0x100 EXP SWAP1 DIV PUSH20 0xFFFFFFFFFFFFFFFFFFFFFFFFFFFFFFFFFFFFFFFF AND PUSH20 0xFFFFFFFFFFFFFFFFFFFFFFFFFFFFFFFFFFFFFFFF AND PUSH4 0x83E56BF7 DUP7 DUP7 DUP7 DUP7 DUP7 PUSH1 0x40 MLOAD DUP7 PUSH4 0xFFFFFFFF AND PUSH1 0xE0 SHL DUP2 MSTORE PUSH1 0x4 ADD PUSH2 0x1FC SWAP6 SWAP5 SWAP4 SWAP3 SWAP2 SWAP1 PUSH2 0xD15 JUMP JUMPDEST PUSH1 0x0 PUSH1 0x40 MLOAD DUP1 DUP4 SUB DUP2 PUSH1 0x0 DUP8 DUP1 EXTCODESIZE ISZERO DUP1 ISZERO PUSH2 0x216 JUMPI PUSH1 0x0 DUP1 REVERT JUMPDEST POP GAS CALL ISZERO DUP1 ISZERO PUSH2 0x22A JUMPI RETURNDATASIZE PUSH1 0x0 DUP1 RETURNDATACOPY RETURNDATASIZE PUSH1 0x0 REVERT JUMPDEST POP POP POP POP POP POP POP POP POP JUMP JUMPDEST PUSH1 0x0 DUP8 MLOAD GT DUP1 ISZERO PUSH2 0x246 JUMPI POP PUSH1 0x0 DUP7 GT JUMPDEST ISZERO PUSH2 0x26E JUMPI PUSH1 0x0 PUSH2 0x25D DUP12 DUP12 DUP12 DUP12 DUP12 DUP12 DUP12 DUP9 PUSH2 0x27A JUMP JUMPDEST PUSH2 0x26C PUSH1 0x3 SLOAD DUP10 DUP7 DUP7 DUP7 PUSH2 0x199 JUMP JUMPDEST POP JUMPDEST POP POP POP POP POP POP POP POP POP POP JUMP JUMPDEST PUSH1 0x2 PUSH1 0x0 SWAP1 SLOAD SWAP1 PUSH2 0x100 EXP SWAP1 DIV PUSH20 0xFFFFFFFFFFFFFFFFFFFFFFFFFFFFFFFFFFFFFFFF AND PUSH20 0xFFFFFFFFFFFFFFFFFFFFFFFFFFFFFFFFFFFFFFFF AND PUSH4 0xEC3942DE DUP10 DUP10 DUP10 DUP10 DUP10 DUP10 DUP10 DUP10 PUSH1 0x40 MLOAD DUP10 PUSH4 0xFFFFFFFF AND PUSH1 0xE0 SHL DUP2 MSTORE PUSH1 0x4 ADD PUSH2 0x2E3 SWAP9 SWAP8 SWAP7 SWAP6 SWAP5 SWAP4 SWAP3 SWAP2 SWAP1 PUSH2 0xBF8 JUMP JUMPDEST PUSH1 0x0 PUSH1 0x40 MLOAD DUP1 DUP4 SUB DUP2 PUSH1 0x0 DUP8 DUP1 EXTCODESIZE ISZERO DUP1 ISZERO PUSH2 0x2FD JUMPI PUSH1 0x0 DUP1 REVERT JUMPDEST POP GAS CALL ISZERO DUP1 ISZERO PUSH2 0x311 JUMPI RETURNDATASIZE PUSH1 0x0 DUP1 RETURNDATACOPY RETURNDATASIZE PUSH1 0x0 REVERT JUMPDEST POP POP POP POP POP POP POP POP POP POP POP POP JUMP JUMPDEST PUSH1 0x0 DUP1 SLOAD SWAP1 PUSH2 0x100 EXP SWAP1 DIV PUSH20 0xFFFFFFFFFFFFFFFFFFFFFFFFFFFFFFFFFFFFFFFF AND DUP2 JUMP JUMPDEST PUSH1 0x2 PUSH1 0x0 SWAP1 SLOAD SWAP1 PUSH2 0x100 EXP SWAP1 DIV PUSH20 0xFFFFFFFFFFFFFFFFFFFFFFFFFFFFFFFFFFFFFFFF AND PUSH20 0xFFFFFFFFFFFFFFFFFFFFFFFFFFFFFFFFFFFFFFFF AND PUSH4 0x57E6C2F4 PUSH1 0x40 MLOAD DUP2 PUSH4 0xFFFFFFFF AND PUSH1 0xE0 SHL DUP2 MSTORE PUSH1 0x4 ADD PUSH1 0x20 PUSH1 0x40 MLOAD DUP1 DUP4 SUB DUP2 DUP7 DUP1 EXTCODESIZE ISZERO DUP1 ISZERO PUSH2 0x3AB JUMPI PUSH1 0x0 DUP1 REVERT JUMPDEST POP GAS STATICCALL ISZERO DUP1 ISZERO PUSH2 0x3BF JUMPI RETURNDATASIZE PUSH1 0x0 DUP1 RETURNDATACOPY RETURNDATASIZE PUSH1 0x0 REVERT JUMPDEST POP POP POP POP PUSH1 0x40 MLOAD RETURNDATASIZE PUSH1 0x1F NOT PUSH1 0x1F DUP3 ADD AND DUP3 ADD DUP1 PUSH1 0x40 MSTORE POP DUP2 ADD SWAP1 PUSH2 0x3E3 SWAP2 SWAP1 PUSH2 0xA04 JUMP JUMPDEST PUSH2 0x422 JUMPI PUSH1 0x40 MLOAD PUSH32 0x8C379A000000000000000000000000000000000000000000000000000000000 DUP2 MSTORE PUSH1 0x4 ADD PUSH2 0x419 SWAP1 PUSH2 0xCF5 JUMP JUMPDEST PUSH1 0x40 MLOAD DUP1 SWAP2 SUB SWAP1 REVERT JUMPDEST DUP1 PUSH1 0x0 DUP1 SLOAD SWAP1 PUSH2 0x100 EXP SWAP1 DIV PUSH20 0xFFFFFFFFFFFFFFFFFFFFFFFFFFFFFFFFFFFFFFFF AND PUSH20 0xFFFFFFFFFFFFFFFFFFFFFFFFFFFFFFFFFFFFFFFF AND PUSH4 0xF8B2CB4F DUP5 PUSH1 0x40 MLOAD DUP3 PUSH4 0xFFFFFFFF AND PUSH1 0xE0 SHL DUP2 MSTORE PUSH1 0x4 ADD PUSH2 0x47C SWAP2 SWAP1 PUSH2 0xBDD JUMP JUMPDEST PUSH1 0x20 PUSH1 0x40 MLOAD DUP1 DUP4 SUB DUP2 DUP7 DUP1 EXTCODESIZE ISZERO DUP1 ISZERO PUSH2 0x494 JUMPI PUSH1 0x0 DUP1 REVERT JUMPDEST POP GAS STATICCALL ISZERO DUP1 ISZERO PUSH2 0x4A8 JUMPI RETURNDATASIZE PUSH1 0x0 DUP1 RETURNDATACOPY RETURNDATASIZE PUSH1 0x0 REVERT JUMPDEST POP POP POP POP PUSH1 0x40 MLOAD RETURNDATASIZE PUSH1 0x1F NOT PUSH1 0x1F DUP3 ADD AND DUP3 ADD DUP1 PUSH1 0x40 MSTORE POP DUP2 ADD SWAP1 PUSH2 0x4CC SWAP2 SWAP1 PUSH2 0xA31 JUMP JUMPDEST LT ISZERO PUSH2 0x50D JUMPI PUSH1 0x40 MLOAD PUSH32 0x8C379A000000000000000000000000000000000000000000000000000000000 DUP2 MSTORE PUSH1 0x4 ADD PUSH2 0x504 SWAP1 PUSH2 0xCD5 JUMP JUMPDEST PUSH1 0x40 MLOAD DUP1 SWAP2 SUB SWAP1 REVERT JUMPDEST PUSH1 0x0 DUP1 SLOAD SWAP1 PUSH2 0x100 EXP SWAP1 DIV PUSH20 0xFFFFFFFFFFFFFFFFFFFFFFFFFFFFFFFFFFFFFFFF AND PUSH20 0xFFFFFFFFFFFFFFFFFFFFFFFFFFFFFFFFFFFFFFFF AND PUSH4 0xF7654A01 PUSH1 0x40 MLOAD DUP2 PUSH4 0xFFFFFFFF AND PUSH1 0xE0 SHL DUP2 MSTORE PUSH1 0x4 ADD PUSH1 0x0 PUSH1 0x40 MLOAD DUP1 DUP4 SUB DUP2 PUSH1 0x0 DUP8 DUP1 EXTCODESIZE ISZERO DUP1 ISZERO PUSH2 0x575 JUMPI PUSH1 0x0 DUP1 REVERT JUMPDEST POP GAS CALL ISZERO DUP1 ISZERO PUSH2 0x589 JUMPI RETURNDATASIZE PUSH1 0x0 DUP1 RETURNDATACOPY RETURNDATASIZE PUSH1 0x0 REVERT JUMPDEST POP POP POP POP POP POP JUMP JUMPDEST PUSH1 0x1 PUSH1 0x0 SWAP1 SLOAD SWAP1 PUSH2 0x100 EXP SWAP1 DIV PUSH20 0xFFFFFFFFFFFFFFFFFFFFFFFFFFFFFFFFFFFFFFFF AND DUP2 JUMP JUMPDEST DUP3 PUSH1 0x0 DUP1 PUSH2 0x100 EXP DUP2 SLOAD DUP2 PUSH20 0xFFFFFFFFFFFFFFFFFFFFFFFFFFFFFFFFFFFFFFFF MUL NOT AND SWAP1 DUP4 PUSH20 0xFFFFFFFFFFFFFFFFFFFFFFFFFFFFFFFFFFFFFFFF AND MUL OR SWAP1 SSTORE POP DUP2 PUSH1 0x1 PUSH1 0x0 PUSH2 0x100 EXP DUP2 SLOAD DUP2 PUSH20 0xFFFFFFFFFFFFFFFFFFFFFFFFFFFFFFFFFFFFFFFF MUL NOT AND SWAP1 DUP4 PUSH20 0xFFFFFFFFFFFFFFFFFFFFFFFFFFFFFFFFFFFFFFFF AND MUL OR SWAP1 SSTORE POP DUP1 PUSH1 0x2 PUSH1 0x0 PUSH2 0x100 EXP DUP2 SLOAD DUP2 PUSH20 0xFFFFFFFFFFFFFFFFFFFFFFFFFFFFFFFFFFFFFFFF MUL NOT AND SWAP1 DUP4 PUSH20 0xFFFFFFFFFFFFFFFFFFFFFFFFFFFFFFFFFFFFFFFF AND MUL OR SWAP1 SSTORE POP POP POP POP JUMP JUMPDEST PUSH1 0x0 PUSH2 0x691 PUSH2 0x68C DUP5 PUSH2 0xD94 JUMP JUMPDEST PUSH2 0xD6F JUMP JUMPDEST SWAP1 POP DUP3 DUP2 MSTORE PUSH1 0x20 DUP2 ADD DUP5 DUP5 DUP5 ADD GT ISZERO PUSH2 0x6AD JUMPI PUSH2 0x6AC PUSH2 0xF46 JUMP JUMPDEST JUMPDEST PUSH2 0x6B8 DUP5 DUP3 DUP6 PUSH2 0xE9F JUMP JUMPDEST POP SWAP4 SWAP3 POP POP POP JUMP JUMPDEST PUSH1 0x0 DUP2 CALLDATALOAD SWAP1 POP PUSH2 0x6CF DUP2 PUSH2 0xFDE JUMP JUMPDEST SWAP3 SWAP2 POP POP JUMP JUMPDEST PUSH1 0x0 DUP2 CALLDATALOAD SWAP1 POP PUSH2 0x6E4 DUP2 PUSH2 0xFF5 JUMP JUMPDEST SWAP3 SWAP2 POP POP JUMP JUMPDEST PUSH1 0x0 DUP2 MLOAD SWAP1 POP PUSH2 0x6F9 DUP2 PUSH2 0xFF5 JUMP JUMPDEST SWAP3 SWAP2 POP POP JUMP JUMPDEST PUSH1 0x0 DUP2 CALLDATALOAD SWAP1 POP PUSH2 0x70E DUP2 PUSH2 0x100C JUMP JUMPDEST SWAP3 SWAP2 POP POP JUMP JUMPDEST PUSH1 0x0 DUP3 PUSH1 0x1F DUP4 ADD SLT PUSH2 0x729 JUMPI PUSH2 0x728 PUSH2 0xF41 JUMP JUMPDEST JUMPDEST DUP2 CALLDATALOAD PUSH2 0x739 DUP5 DUP3 PUSH1 0x20 DUP7 ADD PUSH2 0x67E JUMP JUMPDEST SWAP2 POP POP SWAP3 SWAP2 POP POP JUMP JUMPDEST PUSH1 0x0 DUP2 CALLDATALOAD SWAP1 POP PUSH2 0x751 DUP2 PUSH2 0x1023 JUMP JUMPDEST SWAP3 SWAP2 POP POP JUMP JUMPDEST PUSH1 0x0 DUP2 MLOAD SWAP1 POP PUSH2 0x766 DUP2 PUSH2 0x1023 JUMP JUMPDEST SWAP3 SWAP2 POP POP JUMP JUMPDEST PUSH1 0x0 DUP1 PUSH1 0x0 PUSH1 0x60 DUP5 DUP7 SUB SLT ISZERO PUSH2 0x785 JUMPI PUSH2 0x784 PUSH2 0xF50 JUMP JUMPDEST JUMPDEST PUSH1 0x0 PUSH2 0x793 DUP7 DUP3 DUP8 ADD PUSH2 0x6C0 JUMP JUMPDEST SWAP4 POP POP PUSH1 0x20 PUSH2 0x7A4 DUP7 DUP3 DUP8 ADD PUSH2 0x6C0 JUMP JUMPDEST SWAP3 POP POP PUSH1 0x40 PUSH2 0x7B5 DUP7 DUP3 DUP8 ADD PUSH2 0x6C0 JUMP JUMPDEST SWAP2 POP POP SWAP3 POP SWAP3 POP SWAP3 JUMP JUMPDEST PUSH1 0x0 DUP1 PUSH1 0x0 DUP1 PUSH1 0x0 DUP1 PUSH1 0x0 DUP1 PUSH2 0x100 DUP10 DUP12 SUB SLT ISZERO PUSH2 0x7E0 JUMPI PUSH2 0x7DF PUSH2 0xF50 JUMP JUMPDEST JUMPDEST PUSH1 0x0 PUSH2 0x7EE DUP12 DUP3 DUP13 ADD PUSH2 0x6C0 JUMP JUMPDEST SWAP9 POP POP PUSH1 0x20 PUSH2 0x7FF DUP12 DUP3 DUP13 ADD PUSH2 0x6D5 JUMP JUMPDEST SWAP8 POP POP PUSH1 0x40 DUP10 ADD CALLDATALOAD PUSH8 0xFFFFFFFFFFFFFFFF DUP2 GT ISZERO PUSH2 0x820 JUMPI PUSH2 0x81F PUSH2 0xF4B JUMP JUMPDEST JUMPDEST PUSH2 0x82C DUP12 DUP3 DUP13 ADD PUSH2 0x714 JUMP JUMPDEST SWAP7 POP POP PUSH1 0x60 DUP10 ADD CALLDATALOAD PUSH8 0xFFFFFFFFFFFFFFFF DUP2 GT ISZERO PUSH2 0x84D JUMPI PUSH2 0x84C PUSH2 0xF4B JUMP JUMPDEST JUMPDEST PUSH2 0x859 DUP12 DUP3 DUP13 ADD PUSH2 0x714 JUMP JUMPDEST SWAP6 POP POP PUSH1 0x80 PUSH2 0x86A DUP12 DUP3 DUP13 ADD PUSH2 0x742 JUMP JUMPDEST SWAP5 POP POP PUSH1 0xA0 PUSH2 0x87B DUP12 DUP3 DUP13 ADD PUSH2 0x742 JUMP JUMPDEST SWAP4 POP POP PUSH1 0xC0 PUSH2 0x88C DUP12 DUP3 DUP13 ADD PUSH2 0x6FF JUMP JUMPDEST SWAP3 POP POP PUSH1 0xE0 PUSH2 0x89D DUP12 DUP3 DUP13 ADD PUSH2 0x6D5 JUMP JUMPDEST SWAP2 POP POP SWAP3 SWAP6 SWAP9 POP SWAP3 SWAP6 SWAP9 SWAP1 SWAP4 SWAP7 POP JUMP JUMPDEST PUSH1 0x0 DUP1 PUSH1 0x0 DUP1 PUSH1 0x0 DUP1 PUSH1 0x0 DUP1 PUSH1 0x0 DUP1 PUSH2 0x140 DUP12 DUP14 SUB SLT ISZERO PUSH2 0x8D1 JUMPI PUSH2 0x8D0 PUSH2 0xF50 JUMP JUMPDEST JUMPDEST PUSH1 0x0 PUSH2 0x8DF DUP14 DUP3 DUP15 ADD PUSH2 0x6C0 JUMP JUMPDEST SWAP11 POP POP PUSH1 0x20 PUSH2 0x8F0 DUP14 DUP3 DUP15 ADD PUSH2 0x6D5 JUMP JUMPDEST SWAP10 POP POP PUSH1 0x40 DUP12 ADD CALLDATALOAD PUSH8 0xFFFFFFFFFFFFFFFF DUP2 GT ISZERO PUSH2 0x911 JUMPI PUSH2 0x910 PUSH2 0xF4B JUMP JUMPDEST JUMPDEST PUSH2 0x91D DUP14 DUP3 DUP15 ADD PUSH2 0x714 JUMP JUMPDEST SWAP9 POP POP PUSH1 0x60 DUP12 ADD CALLDATALOAD PUSH8 0xFFFFFFFFFFFFFFFF DUP2 GT ISZERO PUSH2 0x93E JUMPI PUSH2 0x93D PUSH2 0xF4B JUMP JUMPDEST JUMPDEST PUSH2 0x94A DUP14 DUP3 DUP15 ADD PUSH2 0x714 JUMP JUMPDEST SWAP8 POP POP PUSH1 0x80 PUSH2 0x95B DUP14 DUP3 DUP15 ADD PUSH2 0x742 JUMP JUMPDEST SWAP7 POP POP PUSH1 0xA0 PUSH2 0x96C DUP14 DUP3 DUP15 ADD PUSH2 0x742 JUMP JUMPDEST SWAP6 POP POP PUSH1 0xC0 PUSH2 0x97D DUP14 DUP3 DUP15 ADD PUSH2 0x6FF JUMP JUMPDEST SWAP5 POP POP PUSH1 0xE0 PUSH2 0x98E DUP14 DUP3 DUP15 ADD PUSH2 0x742 JUMP JUMPDEST SWAP4 POP POP PUSH2 0x100 PUSH2 0x9A0 DUP14 DUP3 DUP15 ADD PUSH2 0x742 JUMP JUMPDEST SWAP3 POP POP PUSH2 0x120 PUSH2 0x9B2 DUP14 DUP3 DUP15 ADD PUSH2 0x742 JUMP JUMPDEST SWAP2 POP POP SWAP3 SWAP6 SWAP9 SWAP12 SWAP2 SWAP5 SWAP8 SWAP11 POP SWAP3 SWAP6 SWAP9 POP JUMP JUMPDEST PUSH1 0x0 DUP1 PUSH1 0x40 DUP4 DUP6 SUB SLT ISZERO PUSH2 0x9DB JUMPI PUSH2 0x9DA PUSH2 0xF50 JUMP JUMPDEST JUMPDEST PUSH1 0x0 PUSH2 0x9E9 DUP6 DUP3 DUP7 ADD PUSH2 0x6C0 JUMP JUMPDEST SWAP3 POP POP PUSH1 0x20 PUSH2 0x9FA DUP6 DUP3 DUP7 ADD PUSH2 0x742 JUMP JUMPDEST SWAP2 POP POP SWAP3 POP SWAP3 SWAP1 POP JUMP JUMPDEST PUSH1 0x0 PUSH1 0x20 DUP3 DUP5 SUB SLT ISZERO PUSH2 0xA1A JUMPI PUSH2 0xA19 PUSH2 0xF50 JUMP JUMPDEST JUMPDEST PUSH1 0x0 PUSH2 0xA28 DUP5 DUP3 DUP6 ADD PUSH2 0x6EA JUMP JUMPDEST SWAP2 POP POP SWAP3 SWAP2 POP POP JUMP JUMPDEST PUSH1 0x0 PUSH1 0x20 DUP3 DUP5 SUB SLT ISZERO PUSH2 0xA47 JUMPI PUSH2 0xA46 PUSH2 0xF50 JUMP JUMPDEST JUMPDEST PUSH1 0x0 PUSH2 0xA55 DUP5 DUP3 DUP6 ADD PUSH2 0x757 JUMP JUMPDEST SWAP2 POP POP SWAP3 SWAP2 POP POP JUMP JUMPDEST PUSH1 0x0 DUP1 PUSH1 0x0 DUP1 PUSH1 0x0 PUSH1 0xA0 DUP7 DUP9 SUB SLT ISZERO PUSH2 0xA7A JUMPI PUSH2 0xA79 PUSH2 0xF50 JUMP JUMPDEST JUMPDEST PUSH1 0x0 PUSH2 0xA88 DUP9 DUP3 DUP10 ADD PUSH2 0x742 JUMP JUMPDEST SWAP6 POP POP PUSH1 0x20 DUP7 ADD CALLDATALOAD PUSH8 0xFFFFFFFFFFFFFFFF DUP2 GT ISZERO PUSH2 0xAA9 JUMPI PUSH2 0xAA8 PUSH2 0xF4B JUMP JUMPDEST JUMPDEST PUSH2 0xAB5 DUP9 DUP3 DUP10 ADD PUSH2 0x714 JUMP JUMPDEST SWAP5 POP POP PUSH1 0x40 PUSH2 0xAC6 DUP9 DUP3 DUP10 ADD PUSH2 0x742 JUMP JUMPDEST SWAP4 POP POP PUSH1 0x60 PUSH2 0xAD7 DUP9 DUP3 DUP10 ADD PUSH2 0x742 JUMP JUMPDEST SWAP3 POP POP PUSH1 0x80 PUSH2 0xAE8 DUP9 DUP3 DUP10 ADD PUSH2 0x742 JUMP JUMPDEST SWAP2 POP POP SWAP3 SWAP6 POP SWAP3 SWAP6 SWAP1 SWAP4 POP JUMP JUMPDEST PUSH2 0xAFE DUP2 PUSH2 0xDE1 JUMP JUMPDEST DUP3 MSTORE POP POP JUMP JUMPDEST PUSH2 0xB0D DUP2 PUSH2 0xDF3 JUMP JUMPDEST DUP3 MSTORE POP POP JUMP JUMPDEST PUSH2 0xB1C DUP2 PUSH2 0xDFF JUMP JUMPDEST DUP3 MSTORE POP POP JUMP JUMPDEST PUSH2 0xB2B DUP2 PUSH2 0xE33 JUMP JUMPDEST DUP3 MSTORE POP POP JUMP JUMPDEST PUSH2 0xB3A DUP2 PUSH2 0xE57 JUMP JUMPDEST DUP3 MSTORE POP POP JUMP JUMPDEST PUSH2 0xB49 DUP2 PUSH2 0xE7B JUMP JUMPDEST DUP3 MSTORE POP POP JUMP JUMPDEST PUSH1 0x0 PUSH2 0xB5A DUP3 PUSH2 0xDC5 JUMP JUMPDEST PUSH2 0xB64 DUP2 DUP6 PUSH2 0xDD0 JUMP JUMPDEST SWAP4 POP PUSH2 0xB74 DUP2 DUP6 PUSH1 0x20 DUP7 ADD PUSH2 0xEAE JUMP JUMPDEST PUSH2 0xB7D DUP2 PUSH2 0xF55 JUMP JUMPDEST DUP5 ADD SWAP2 POP POP SWAP3 SWAP2 POP POP JUMP JUMPDEST PUSH1 0x0 PUSH2 0xB95 PUSH1 0x20 DUP4 PUSH2 0xDD0 JUMP JUMPDEST SWAP2 POP PUSH2 0xBA0 DUP3 PUSH2 0xF66 JUMP JUMPDEST PUSH1 0x20 DUP3 ADD SWAP1 POP SWAP2 SWAP1 POP JUMP JUMPDEST PUSH1 0x0 PUSH2 0xBB8 PUSH1 0x2D DUP4 PUSH2 0xDD0 JUMP JUMPDEST SWAP2 POP PUSH2 0xBC3 DUP3 PUSH2 0xF8F JUMP JUMPDEST PUSH1 0x40 DUP3 ADD SWAP1 POP SWAP2 SWAP1 POP JUMP JUMPDEST PUSH2 0xBD7 DUP2 PUSH2 0xE29 JUMP JUMPDEST DUP3 MSTORE POP POP JUMP JUMPDEST PUSH1 0x0 PUSH1 0x20 DUP3 ADD SWAP1 POP PUSH2 0xBF2 PUSH1 0x0 DUP4 ADD DUP5 PUSH2 0xAF5 JUMP JUMPDEST SWAP3 SWAP2 POP POP JUMP JUMPDEST PUSH1 0x0 PUSH2 0x100 DUP3 ADD SWAP1 POP PUSH2 0xC0E PUSH1 0x0 DUP4 ADD DUP12 PUSH2 0xAF5 JUMP JUMPDEST PUSH2 0xC1B PUSH1 0x20 DUP4 ADD DUP11 PUSH2 0xB04 JUMP JUMPDEST DUP2 DUP2 SUB PUSH1 0x40 DUP4 ADD MSTORE PUSH2 0xC2D DUP2 DUP10 PUSH2 0xB4F JUMP JUMPDEST SWAP1 POP DUP2 DUP2 SUB PUSH1 0x60 DUP4 ADD MSTORE PUSH2 0xC41 DUP2 DUP9 PUSH2 0xB4F JUMP JUMPDEST SWAP1 POP PUSH2 0xC50 PUSH1 0x80 DUP4 ADD DUP8 PUSH2 0xBCE JUMP JUMPDEST PUSH2 0xC5D PUSH1 0xA0 DUP4 ADD DUP7 PUSH2 0xBCE JUMP JUMPDEST PUSH2 0xC6A PUSH1 0xC0 DUP4 ADD DUP6 PUSH2 0xB13 JUMP JUMPDEST PUSH2 0xC77 PUSH1 0xE0 DUP4 ADD DUP5 PUSH2 0xB04 JUMP JUMPDEST SWAP10 SWAP9 POP POP POP POP POP POP POP POP POP JUMP JUMPDEST PUSH1 0x0 PUSH1 0x20 DUP3 ADD SWAP1 POP PUSH2 0xC99 PUSH1 0x0 DUP4 ADD DUP5 PUSH2 0xB22 JUMP JUMPDEST SWAP3 SWAP2 POP POP JUMP JUMPDEST PUSH1 0x0 PUSH1 0x20 DUP3 ADD SWAP1 POP PUSH2 0xCB4 PUSH1 0x0 DUP4 ADD DUP5 PUSH2 0xB31 JUMP JUMPDEST SWAP3 SWAP2 POP POP JUMP JUMPDEST PUSH1 0x0 PUSH1 0x20 DUP3 ADD SWAP1 POP PUSH2 0xCCF PUSH1 0x0 DUP4 ADD DUP5 PUSH2 0xB40 JUMP JUMPDEST SWAP3 SWAP2 POP POP JUMP JUMPDEST PUSH1 0x0 PUSH1 0x20 DUP3 ADD SWAP1 POP DUP2 DUP2 SUB PUSH1 0x0 DUP4 ADD MSTORE PUSH2 0xCEE DUP2 PUSH2 0xB88 JUMP JUMPDEST SWAP1 POP SWAP2 SWAP1 POP JUMP JUMPDEST PUSH1 0x0 PUSH1 0x20 DUP3 ADD SWAP1 POP DUP2 DUP2 SUB PUSH1 0x0 DUP4 ADD MSTORE PUSH2 0xD0E DUP2 PUSH2 0xBAB JUMP JUMPDEST SWAP1 POP SWAP2 SWAP1 POP JUMP JUMPDEST PUSH1 0x0 PUSH1 0xA0 DUP3 ADD SWAP1 POP PUSH2 0xD2A PUSH1 0x0 DUP4 ADD DUP9 PUSH2 0xBCE JUMP JUMPDEST DUP2 DUP2 SUB PUSH1 0x20 DUP4 ADD MSTORE PUSH2 0xD3C DUP2 DUP8 PUSH2 0xB4F JUMP JUMPDEST SWAP1 POP PUSH2 0xD4B PUSH1 0x40 DUP4 ADD DUP7 PUSH2 0xBCE JUMP JUMPDEST PUSH2 0xD58 PUSH1 0x60 DUP4 ADD DUP6 PUSH2 0xBCE JUMP JUMPDEST PUSH2 0xD65 PUSH1 0x80 DUP4 ADD DUP5 PUSH2 0xBCE JUMP JUMPDEST SWAP7 SWAP6 POP POP POP POP POP POP JUMP JUMPDEST PUSH1 0x0 PUSH2 0xD79 PUSH2 0xD8A JUMP JUMPDEST SWAP1 POP PUSH2 0xD85 DUP3 DUP3 PUSH2 0xEE1 JUMP JUMPDEST SWAP2 SWAP1 POP JUMP JUMPDEST PUSH1 0x0 PUSH1 0x40 MLOAD SWAP1 POP SWAP1 JUMP JUMPDEST PUSH1 0x0 PUSH8 0xFFFFFFFFFFFFFFFF DUP3 GT ISZERO PUSH2 0xDAF JUMPI PUSH2 0xDAE PUSH2 0xF12 JUMP JUMPDEST JUMPDEST PUSH2 0xDB8 DUP3 PUSH2 0xF55 JUMP JUMPDEST SWAP1 POP PUSH1 0x20 DUP2 ADD SWAP1 POP SWAP2 SWAP1 POP JUMP JUMPDEST PUSH1 0x0 DUP2 MLOAD SWAP1 POP SWAP2 SWAP1 POP JUMP JUMPDEST PUSH1 0x0 DUP3 DUP3 MSTORE PUSH1 0x20 DUP3 ADD SWAP1 POP SWAP3 SWAP2 POP POP JUMP JUMPDEST PUSH1 0x0 PUSH2 0xDEC DUP3 PUSH2 0xE09 JUMP JUMPDEST SWAP1 POP SWAP2 SWAP1 POP JUMP JUMPDEST PUSH1 0x0 DUP2 ISZERO ISZERO SWAP1 POP SWAP2 SWAP1 POP JUMP JUMPDEST PUSH1 0x0 DUP2 SWAP1 POP SWAP2 SWAP1 POP JUMP JUMPDEST PUSH1 0x0 PUSH20 0xFFFFFFFFFFFFFFFFFFFFFFFFFFFFFFFFFFFFFFFF DUP3 AND SWAP1 POP SWAP2 SWAP1 POP JUMP JUMPDEST PUSH1 0x0 DUP2 SWAP1 POP SWAP2 SWAP1 POP JUMP JUMPDEST PUSH1 0x0 PUSH2 0xE3E DUP3 PUSH2 0xE45 JUMP JUMPDEST SWAP1 POP SWAP2 SWAP1 POP JUMP JUMPDEST PUSH1 0x0 PUSH2 0xE50 DUP3 PUSH2 0xE09 JUMP JUMPDEST SWAP1 POP SWAP2 SWAP1 POP JUMP JUMPDEST PUSH1 0x0 PUSH2 0xE62 DUP3 PUSH2 0xE69 JUMP JUMPDEST SWAP1 POP SWAP2 SWAP1 POP JUMP JUMPDEST PUSH1 0x0 PUSH2 0xE74 DUP3 PUSH2 0xE09 JUMP JUMPDEST SWAP1 POP SWAP2 SWAP1 POP JUMP JUMPDEST PUSH1 0x0 PUSH2 0xE86 DUP3 PUSH2 0xE8D JUMP JUMPDEST SWAP1 POP SWAP2 SWAP1 POP JUMP JUMPDEST PUSH1 0x0 PUSH2 0xE98 DUP3 PUSH2 0xE09 JUMP JUMPDEST SWAP1 POP SWAP2 SWAP1 POP JUMP JUMPDEST DUP3 DUP2 DUP4 CALLDATACOPY PUSH1 0x0 DUP4 DUP4 ADD MSTORE POP POP POP JUMP JUMPDEST PUSH1 0x0 JUMPDEST DUP4 DUP2 LT ISZERO PUSH2 0xECC JUMPI DUP1 DUP3 ADD MLOAD DUP2 DUP5 ADD MSTORE PUSH1 0x20 DUP2 ADD SWAP1 POP PUSH2 0xEB1 JUMP JUMPDEST DUP4 DUP2 GT ISZERO PUSH2 0xEDB JUMPI PUSH1 0x0 DUP5 DUP5 ADD MSTORE JUMPDEST POP POP POP POP JUMP JUMPDEST PUSH2 0xEEA DUP3 PUSH2 0xF55 JUMP JUMPDEST DUP2 ADD DUP2 DUP2 LT PUSH8 0xFFFFFFFFFFFFFFFF DUP3 GT OR ISZERO PUSH2 0xF09 JUMPI PUSH2 0xF08 PUSH2 0xF12 JUMP JUMPDEST JUMPDEST DUP1 PUSH1 0x40 MSTORE POP POP POP JUMP JUMPDEST PUSH32 0x4E487B7100000000000000000000000000000000000000000000000000000000 PUSH1 0x0 MSTORE PUSH1 0x41 PUSH1 0x4 MSTORE PUSH1 0x24 PUSH1 0x0 REVERT JUMPDEST PUSH1 0x0 DUP1 REVERT JUMPDEST PUSH1 0x0 DUP1 REVERT JUMPDEST PUSH1 0x0 DUP1 REVERT JUMPDEST PUSH1 0x0 DUP1 REVERT JUMPDEST PUSH1 0x0 PUSH1 0x1F NOT PUSH1 0x1F DUP4 ADD AND SWAP1 POP SWAP2 SWAP1 POP JUMP JUMPDEST PUSH32 0x496E73756666696369656E742062616C616E636520696E205472656173757279 PUSH1 0x0 DUP3 ADD MSTORE POP JUMP JUMPDEST PUSH32 0x506C61796572206973206E6F7420617574686F72697A656420746F206D616B65 PUSH1 0x0 DUP3 ADD MSTORE PUSH32 0x2061207769746864726177616C00000000000000000000000000000000000000 PUSH1 0x20 DUP3 ADD MSTORE POP JUMP JUMPDEST PUSH2 0xFE7 DUP2 PUSH2 0xDE1 JUMP JUMPDEST DUP2 EQ PUSH2 0xFF2 JUMPI PUSH1 0x0 DUP1 REVERT JUMPDEST POP JUMP JUMPDEST PUSH2 0xFFE DUP2 PUSH2 0xDF3 JUMP JUMPDEST DUP2 EQ PUSH2 0x1009 JUMPI PUSH1 0x0 DUP1 REVERT JUMPDEST POP JUMP JUMPDEST PUSH2 0x1015 DUP2 PUSH2 0xDFF JUMP JUMPDEST DUP2 EQ PUSH2 0x1020 JUMPI PUSH1 0x0 DUP1 REVERT JUMPDEST POP JUMP JUMPDEST PUSH2 0x102C DUP2 PUSH2 0xE29 JUMP JUMPDEST DUP2 EQ PUSH2 0x1037 JUMPI PUSH1 0x0 DUP1 REVERT JUMPDEST POP JUMP INVALID LOG2 PUSH5 0x6970667358 0x22 SLT KECCAK256 0xD6 GASPRICE 0x4B LOG0 0xA5 DIFFICULTY 0xA5 PUSH11 0x12527F33A616A9F999396B DUP6 PUSH19 0xA62C61FDF498E9DE9FFFBE64736F6C63430008 MOD STOP CALLER "
		},
		"gasEstimates": {
			"creation": {
				"codeDepositCost": "841600",
				"executionCost": "877",
				"totalCost": "842477"
			},
			"external": {
				"permissions()": "2601",
				"playerStats()": "2558",
				"relayAllData(address,bool,string,string,uint256,uint256,bytes32,uint256,uint256,uint256)": "infinite",
				"relayGameData(uint256,string,uint256,uint256,uint256)": "infinite",
				"relayPlayerData(address,bool,string,string,uint256,uint256,bytes32,bool)": "infinite",
				"requestPlayerWithdrawal(address,uint256)": "infinite",
				"setContracts(address,address,address)": "infinite",
				"treasury()": "2554"
			}
		},
		"methodIdentifiers": {
			"permissions()": "ab8c71c0",
			"playerStats()": "0ee42686",
			"relayAllData(address,bool,string,string,uint256,uint256,bytes32,uint256,uint256,uint256)": "3ba1e42c",
			"relayGameData(uint256,string,uint256,uint256,uint256)": "2de25f4c",
			"relayPlayerData(address,bool,string,string,uint256,uint256,bytes32,bool)": "418016b7",
			"requestPlayerWithdrawal(address,uint256)": "66113902",
			"setContracts(address,address,address)": "b3066d49",
			"treasury()": "61d027b3"
		}
	},
	"abi": [
		{
			"inputs": [],
			"stateMutability": "nonpayable",
			"type": "constructor"
		},
		{
			"inputs": [],
			"name": "permissions",
			"outputs": [
				{
					"internalType": "contract Permissions",
					"name": "",
					"type": "address"
				}
			],
			"stateMutability": "view",
			"type": "function"
		},
		{
			"inputs": [],
			"name": "playerStats",
			"outputs": [
				{
					"internalType": "contract PlayerStats",
					"name": "",
					"type": "address"
				}
			],
			"stateMutability": "view",
			"type": "function"
		},
		{
			"inputs": [
				{
					"internalType": "address",
					"name": "_playerAddress",
					"type": "address"
				},
				{
					"internalType": "bool",
					"name": "_gameWonByPlayer",
					"type": "bool"
				},
				{
					"internalType": "string",
					"name": "_playerGuess",
					"type": "string"
				},
				{
					"internalType": "string",
					"name": "_actualResult",
					"type": "string"
				},
				{
					"internalType": "uint256",
					"name": "_betAmount",
					"type": "uint256"
				},
				{
					"internalType": "uint256",
					"name": "_gamesPlayed",
					"type": "uint256"
				},
				{
					"internalType": "bytes32",
					"name": "_accessToken",
					"type": "bytes32"
				},
				{
					"internalType": "uint256",
					"name": "_totalGamesPlayed",
					"type": "uint256"
				},
				{
					"internalType": "uint256",
					"name": "_totalHbarWagered",
					"type": "uint256"
				},
				{
					"internalType": "uint256",
					"name": "_totalHbarWon",
					"type": "uint256"
				}
			],
			"name": "relayAllData",
			"outputs": [],
			"stateMutability": "nonpayable",
			"type": "function"
		},
		{
			"inputs": [
				{
					"internalType": "uint256",
					"name": "_gameId",
					"type": "uint256"
				},
				{
					"internalType": "string",
					"name": "_actualResult",
					"type": "string"
				},
				{
					"internalType": "uint256",
					"name": "_totalGamesPlayed",
					"type": "uint256"
				},
				{
					"internalType": "uint256",
					"name": "_totalHbarWagered",
					"type": "uint256"
				},
				{
					"internalType": "uint256",
					"name": "_totalHbarWon",
					"type": "uint256"
				}
			],
			"name": "relayGameData",
			"outputs": [],
			"stateMutability": "nonpayable",
			"type": "function"
		},
		{
			"inputs": [
				{
					"internalType": "address",
					"name": "_playerAddress",
					"type": "address"
				},
				{
					"internalType": "bool",
					"name": "_gameWonByPlayer",
					"type": "bool"
				},
				{
					"internalType": "string",
					"name": "_playerGuess",
					"type": "string"
				},
				{
					"internalType": "string",
					"name": "_actualResult",
					"type": "string"
				},
				{
					"internalType": "uint256",
					"name": "_betAmount",
					"type": "uint256"
				},
				{
					"internalType": "uint256",
					"name": "_gamesPlayed",
					"type": "uint256"
				},
				{
					"internalType": "bytes32",
					"name": "_accessToken",
					"type": "bytes32"
				},
				{
					"internalType": "bool",
					"name": "_isGameActive",
					"type": "bool"
				}
			],
			"name": "relayPlayerData",
			"outputs": [],
			"stateMutability": "nonpayable",
			"type": "function"
		},
		{
			"inputs": [
				{
					"internalType": "address",
					"name": "playerAddress",
					"type": "address"
				},
				{
					"internalType": "uint256",
					"name": "amount",
					"type": "uint256"
				}
			],
			"name": "requestPlayerWithdrawal",
			"outputs": [],
			"stateMutability": "nonpayable",
			"type": "function"
		},
		{
			"inputs": [
				{
					"internalType": "address",
					"name": "_treasury",
					"type": "address"
				},
				{
					"internalType": "address",
					"name": "_permissions",
					"type": "address"
				},
				{
					"internalType": "address",
					"name": "_playerStats",
					"type": "address"
				}
			],
			"name": "setContracts",
			"outputs": [],
			"stateMutability": "nonpayable",
			"type": "function"
		},
		{
			"inputs": [],
			"name": "treasury",
			"outputs": [
				{
					"internalType": "contract Treasury",
					"name": "",
					"type": "address"
				}
			],
			"stateMutability": "view",
			"type": "function"
		}
	]
}